:020000040800F2
:1000000000000220C5380008C5340008CD340008BF
:10001000D5340008DD340008E53400080000000095
:10002000000000000000000000000000ED340008A7
:10003000FB340008000000000935000817350008EF
:100040001539000815390008153900081539000858
:100050001539000815390008153900081539000848
:100060001539000815390008153900081539000838
:100070001539000815390008153900081539000828
:100080001539000815390008153900081539000818
:100090001539000815390008153900081539000808
:1000A00015390008153900081539000815390008F8
:1000B00015390008153900081539000815390008E8
:1000C00015390008153900081539000815390008D8
:1000D00015390008153900081539000815390008C8
:1000E0003935000815390008153900081539000898
:1000F00015390008153900081539000815390008A8
:10010000153900081539000815390008253500088B
:100110001539000815390008153900081539000887
:100120001539000815390008153900081539000877
:100130001539000800000000000000001539000813
:100140001539000815390008153900081539000857
:100150001539000815390008153900081539000847
:100160001539000815390008153900081539000837
:1001700015390008153900080000000000000000D3
:080180001539000815390008CB
:1001900053B94AB9002908BF00281CBF4FF0FF31EE
:1001A0004FF0FF3000F00CB8ADF1080C6DE904CE53
:1001B00003F0F2FCDDF804E0DDE9022304B070474F
:1001C000704700BF000000000000000000000000B9
:1001D00001F0FF01102A2BDB10F0070F08D010F8F8
:1001E000013B013A8B422DD010F0070F42B3F6D1FC
:1001F000F0B441EA012141EA014122F007047FF015
:1002000000070023F0E80256083C85EA010586EA6B
:10021000010685FA47F5A3FA87F586FA47F6A5FAA7
:1002200087F68EB9EED1F0BC01F0FF0102F00702B3
:1002300032B110F8013B013A83EA010313B1F8D15E
:100240000020704701387047002D06BF354603383F
:10025000073815F0010F07D1013015F4807F02BF78
:10026000013015F4C03F0130F0BC0138704700BFC9
:100270000348044B834202D0034B03B11847704735
:100280005C0000205C000020000000000548064BD8
:100290001B1AD90F01EBA301491002D0034B03B184
:1002A000184770475C0000205C0000200000000040
:1002B00010B5064C237843B9FFF7DAFF044B13B1AE
:1002C0000448AFF300800123237010BD5C000020C0
:1002D000000000000448000808B5054B1BB10549A3
:1002E0000548AFF30080BDE80840FFF7CFBF00BF6F
:1002F00000000000600000200448000880B400AF47
:10030000064BD3F88830054A43F47003C2F88830AE
:1003100000BFBD465DF8047B704700BF00ED00E004
:1003200080B584B000AF78607B68002B01D10123D9
:100330002BE17B6893F83D30DBB2002B06D17B6864
:10034000002283F83C20786803F026F97B68242299
:1003500083F83D207B681B681A687B681B6822F065
:1003600001021A607B681B681A687B681B6842F48C
:1003700000421A607B681B681A687B681B6822F45D
:1003800000421A6000F03EFDF8607B685B68814ABD
:10039000934207D8FB68804A934294BF012300230D
:1003A000DBB206E0FB687D4A934294BF0123002341
:1003B000DBB2002B01D00123E7E0FB68784AA2FB07
:1003C00003239B0CBB607B681B685B6823F03F01C9
:1003D0007B681B68BA680A435A607B681B681B6AA3
:1003E00023F03F017B685B686A4A934202D8BB688E
:1003F000013309E0BB684FF4967202FB03F3694ACC
:10040000A2FB03239B0901337A6812680B43136232
:100410007B681B68DB6923F44F4222F0FF027B6894
:100420005B685C498B4219D8FB68591E7B685B6826
:100430005B00B1FBF3F3591C40F6FC730B40002B3F
:100440000AD0FB68591E7B685B685B00B1FBF3F365
:100450000133C3F30B0351E004234FE07B689B6837
:10046000002B11D1FB68581E7B6859680B465B0056
:100470000B44B0FBF3F30133C3F30B03002B0CBFAE
:1004800001230023DBB212E0FB68581E7B68596829
:100490000B469B000B4499000B44B0FBF3F3013374
:1004A000C3F30B03002B0CBF01230023DBB2002B93
:1004B00001D0012322E07B689B68002B0ED1FB68F2
:1004C000581E7B6859680B465B000B44B0FBF3F386
:1004D0000133C3F30B0343F400430FE0FB68581EE2
:1004E0007B6859680B469B000B4499000B44B0FB9A
:1004F000F3F30133C3F30B0343F440437968096812
:100500001343CB617B681B681B6823F0C0017B68C9
:10051000DA697B681B6A1A437B681B680A431A60A6
:100520007B681B689B6823F4034323F0FF037A680E
:1005300011697A68D26811437A6812680B43936034
:100540007B681B68DB6823F0FF017B685A697B6866
:100550009B691A437B681B680A43DA607B681B68E7
:100560001A687B681B6842F001021A607B680022EF
:100570001A647B68202283F83D207B6800221A637E
:100580007B68002283F83E20002318461037BD46C2
:1005900080BD00BFA08601007F841E00FF083D00D3
:1005A00083DE1B43D34D621080B586B000AF786008
:1005B0007B68002B01D1012367E27B681B6803F095
:1005C0000103002B75D0884B9B6803F00C03042BB0
:1005D0000CD0854B9B6803F00C03082B12D1824B87
:1005E0005B6803F48003B3F5800F0BD17E4B1B686F
:1005F00003F40033002B5BD07B685B68002B57D182
:10060000012342E27B685B68B3F5803F06D1764BFD
:100610001B68754A43F4803313601DE07B685B6898
:10062000B3F5A02F0CD1704B1B686F4A43F48023A5
:1006300013606D4B1B686C4A43F4803313600BE00E
:10064000694B1B68684A23F480331360664B1B6850
:10065000654A23F4802313607B685B68002B13D00A
:1006600000F07AFF386108E000F076FF02463B694F
:10067000D31A642B01D9032307E25B4B1B6803F4F5
:100680000033002BF0D014E000F066FF386108E082
:1006900000F062FF02463B69D31A642B01D90323A1
:1006A000F3E1514B1B6803F40033002BF0D100E061
:1006B00000BF7B681B6803F00203002B63D04A4B2A
:1006C0009B6803F00C03002B0BD0474B9B6803F097
:1006D0000C03082B1CD1444B5B6803F48003002BF4
:1006E00016D1414B1B6803F00203002B05D07B6839
:1006F000DB68012B01D00123C7E13B4B1B6823F0D2
:10070000F8027B681B69DB00374913430B603AE052
:100710007B68DB68002B20D0344B01221A6000F08C
:100720001BFF386108E000F017FF02463B69D31A4F
:10073000022B01D90323A8E12B4B1B6803F0020312
:10074000002BF0D0284B1B6823F0F8027B681B6954
:10075000DB00254913430B6015E0244B00221A608F
:1007600000F0FAFE386108E000F0F6FE02463B6950
:10077000D31A022B01D9032387E11B4B1B6803F01B
:100780000203002BF0D17B681B6803F00803002BE9
:1007900036D07B685B69002B16D0154B01221A609E
:1007A00000F0DAFE386108E000F0D6FE02463B6950
:1007B000D31A022B01D9032367E10B4B5B6F03F0C4
:1007C0000203002BF0D01BE0094B00221A6000F05E
:1007D000C3FE38610EE000F0BFFE02463B69D31A4B
:1007E000022B07D9032350E10038024000004742A2
:1007F000800E4742884B5B6F03F00203002BEAD167
:100800007B681B6803F00403002B00F09780002333
:10081000FB75814B1B6C03F08053002B0FD1002321
:10082000BB607D4B1B6C7C4A43F0805313647A4B56
:100830001B6C03F08053BB60BB680123FB75774BD7
:100840001B6803F48073002B18D1744B1B68734A28
:1008500043F48073136000F07FFE386108E000F01D
:100860007BFE02463B69D31A022B01D903230CE11C
:100870006A4B1B6803F48073002BF0D07B689B6885
:10088000012B06D1644B1B6F634A43F001031367CE
:100890001CE07B689B68052B0CD15F4B1B6F5E4A8D
:1008A00043F0040313675C4B1B6F5B4A43F0010387
:1008B00013670BE0584B1B6F574A23F00103136774
:1008C000554B1B6F544A23F0040313677B689B68E6
:1008D000002B15D000F040FE38610AE000F03CFE2D
:1008E00002463B69D31A41F28832934201D903236D
:1008F000CBE0494B1B6F03F00203002BEED014E05A
:1009000000F02AFE38610AE000F026FE02463B694C
:10091000D31A41F28832934201D90323B5E03E4B0A
:100920001B6F03F00203002BEED1FB7D012B05D1E1
:10093000394B1B6C384A23F0805313647B689B69E6
:10094000002B00F0A180344B9B6803F00C03082BB4
:100950005CD07B689B69022B41D1314B00221A602D
:1009600000F0FAFD386108E000F0F6FD02463B6950
:10097000D31A022B01D9032387E0274B1B6803F00E
:100980000073002BF0D17B68DA697B681B6A1A431D
:100990007B685B6A9B011A437B689B6A5B08013B2F
:1009A0001B041A437B68DB6A1B061B4913434B601D
:1009B0001B4B01221A6000F0CFFD386108E000F007
:1009C000CBFD02463B69D31A022B01D903235CE01D
:1009D000114B1B6803F00073002BF0D054E0104B58
:1009E00000221A6000F0B8FD386108E000F0B4FDA4
:1009F00002463B69D31A022B01D9032345E0064B7B
:100A00001B6803F00073002BF0D13DE07B689B690D
:100A1000012B07D1012338E000380240007000406C
:100A2000600047421B4B5B68FB607B689B69012B46
:100A300028D0FB6803F480027B68DB699A4221D1ED
:100A4000FB6803F03F027B681B6A9A421AD1FA687E
:100A500047F6C07313407A68526A9201934211D1EB
:100A6000FB6803F440327B689B6A5B08013B1B0414
:100A70009A4207D1FB6803F070627B68DB6A1B0651
:100A80009A4201D0012300E0002318461837BD46E2
:100A900080BD00BF0038024080B584B000AF7860F0
:100AA00039607B68002B01D10123CCE0684B1B68C7
:100AB00003F007033A689A420CD9654B3A68D2B200
:100AC0001A70634B1B6803F007033A689A4201D01F
:100AD0000123B8E07B681B6803F00203002B20D0E1
:100AE0007B681B6803F00403002B05D0594B9B68FF
:100AF000584A43F4E05393607B681B6803F0080393
:100B0000002B05D0534B9B68524A43F460439360DB
:100B1000504B9B6823F0F0027B689B684D49134360
:100B20008B607B681B6803F00103002B44D07B685B
:100B30005B68012B07D1474B1B6803F40033002B84
:100B400019D101237FE07B685B68022B03D07B68AF
:100B50005B68032B07D13F4B1B6803F00073002B2E
:100B600009D101236FE03B4B1B6803F00203002B0C
:100B700001D1012367E0374B9B6823F003027B68B8
:100B80005B68344913438B6000F0E6FCF8600AE0D0
:100B900000F0E2FC0246FB68D31A41F2883293422D
:100BA00001D903234FE02B4B9B6803F00C027B68B9
:100BB0005B689B009A42EBD1254B1B6803F007034F
:100BC0003A689A420CD2224B3A68D2B21A70204B41
:100BD0001B6803F007033A689A4201D0012332E010
:100BE0007B681B6803F00403002B08D0194B9B683B
:100BF00023F4E0527B68DB68164913438B607B6803
:100C00001B6803F00803002B09D0124B9B6823F4E8
:100C100060427B681B69DB000E4913438B6000F068
:100C200021F802460B4B9B681B0903F00F030A498E
:100C3000CB5C22FA03F3094A1360094B1B68184680
:100C400000F046FC002318461037BD4680BD00BFAB
:100C5000003C0240003802406848000800000020C4
:100C6000040000202DE9B04F90B000AF00237B635B
:100C70000023FB6300233B630023BB63584B9B684B
:100C800003F00C03082B0DD0082B00F2A080002BE2
:100C900002D0042B03D09AE0524BBB639AE0524B34
:100CA000BB6397E04E4B5B6803F03F037B634C4BA9
:100CB0005B6803F48003002B27D0494B5B689B09DA
:100CC00000223B627A623B6AC3F308000021464B74
:100CD00003FB01F2002300FB03F31344424AA0FB91
:100CE0000221F962BA62FA6A1344FB627B6B00224A
:100CF000BB61FA61D7E90623D7E90A01FFF748FA91
:100D000002460B461346FB6353E0354B5B689B0979
:100D100000223B617A613B69C3F3080A4FF0000B84
:100D200052465B464FF000004FF00001590141EA86
:100D3000D261500102460B46B2EB0A0863EB0B0985
:100D40004FF000024FF000034FEA891343EA986323
:100D50004FEA8812B2EB080463EB09054FF000027A
:100D60004FF00003EB0043EA5473E20014461D46C3
:100D700014EB0A033B6045EB0B037B604FF0000272
:100D80004FF00003D7E9004529468B02214643EA8C
:100D9000915321468A02104619467B6B0022BB60A4
:100DA000FA60D7E90223FFF7F3F902460B46134630
:100DB000FB630B4B5B681B0C03F0030301335B000D
:100DC0003B63FA6B3B6BB2FBF3F3BB6302E0054B97
:100DD000BB6300BFBB6B18464037BD46BDE8B08F54
:100DE000003802400024F40040787D0180B400AF58
:100DF000034B1B681846BD465DF8047B704700BF77
:100E00000000002080B500AFFFF7F0FF0246054B61
:100E10009B689B0A03F007030349CB5C22FA03F3A8
:100E2000184680BD003802407848000880B500AF01
:100E3000FFF7DCFF0246054B9B685B0B03F00703E3
:100E40000349CB5C22FA03F3184680BD0038024008
:100E50007848000880B489B000AF7860396000231A
:100E60007B6100233B610023BB610023FB616BE1DD
:100E70000122FB6902FA03F37B613B681B687A6914
:100E800013403B613A697B699A4240F05A813B6862
:100E90005B6803F00303012B05D03B685B6803F03C
:100EA0000303022B30D17B689B68BB61FB695B004D
:100EB000032202FA03F3DB43BA691340BB613B68C8
:100EC000DA68FB695B0002FA03F3BA691343BB619A
:100ED0007B68BA699A607B685B68BB610122FB69C9
:100EE00002FA03F3DB43BA691340BB613B685B68FA
:100EF0001B0903F00102FB6902FA03F3BA69134309
:100F0000BB617B68BA695A603B685B6803F00303A6
:100F1000032B17D07B68DB68BB61FB695B00032296
:100F200002FA03F3DB43BA691340BB613B689A687A
:100F3000FB695B0002FA03F3BA691343BB617B6888
:100F4000BA69DA603B685B6803F00303022B23D1C4
:100F5000FB69DA087B68083253F82230BB61FB6911
:100F600003F007039B000F2202FA03F3DB43BA6985
:100F70001340BB613B681A69FB6903F007039B00E0
:100F800002FA03F3BA691343BB61FB69DA087B68B1
:100F90000832B96943F822107B681B68BB61FB69A2
:100FA0005B00032202FA03F3DB43BA691340BB611F
:100FB0003B685B6803F00302FB695B0002FA03F322
:100FC000BA691343BB617B68BA691A603B685B68A6
:100FD00003F44033002B00F0B4800023FB60604B2F
:100FE0005B6C5F4A43F4804353645D4B5B6C03F47A
:100FF0008043FB60FB685B4AFB699B08023352F845
:101000002330BB61FB6903F003039B000F2202FA4C
:1010100003F3DB43BA691340BB617B68524A9342D6
:101020002BD07B68514A934225D07B68504A93422B
:101030001FD07B684F4A934219D07B684E4A934237
:1010400013D07B684D4A93420DD07B684C4A934243
:1010500007D07B684B4A934201D107230EE0082357
:101060000CE006230AE0052308E0042306E003233E
:1010700004E0022302E0012300E00023FA6902F009
:10108000030292009340BA691343BB613549FB697F
:101090009B080233BA6941F823203B4B9B68BB6134
:1010A0003B69DB43BA691340BB613B685B6803F48F
:1010B0008013002B03D0BA693B691343BB61324AEA
:1010C000BB699360304BDB68BB613B69DB43BA694A
:1010D0001340BB613B685B6803F40013002B03D033
:1010E000BA693B691343BB61274ABB69D360264B8E
:1010F0005B68BB613B69DB43BA691340BB613B681A
:101100005B6803F40033002B03D0BA693B691343D7
:10111000BB611D4ABB6953601B4B1B68BB613B69CC
:10112000DB43BA691340BB613B685B6803F48033FF
:10113000002B03D0BA693B691343BB61124ABB69F8
:101140001360FB690133FB61FB690F2B7FF690AEE7
:1011500000BF00BF2437BD465DF8047B704700BF69
:101160000038024000380140000002400004024004
:1011700000080240000C024000100240001402402F
:1011800000180240001C0240003C014080B483B0C3
:1011900000AF78600B467B8013467B707B78002B1A
:1011A00003D07A887B689A6103E07B881A047B68A5
:1011B0009A6100BF0C37BD465DF8047B704780B470
:1011C00085B000AF78600B467B807B685B69FB6015
:1011D0007A88FB6813401A04FB68D9437B880B406C
:1011E0001A437B689A6100BF1437BD465DF8047BE3
:1011F0007047000080B582B000AF0346FB80084B0B
:101200005A69FB881340002B06D0054AFB885361BE
:10121000FB88184602F02EF900BF0837BD4680BD96
:10122000003C014080B483B000AF78607B6893F8E5
:101230003530DBB2022B04D07B6880225A65012353
:101240000CE07B68052283F835207B681B681A68F0
:101250007B681B6822F001021A60002318460C37D5
:10126000BD465DF8047B704780B485B000AF786000
:101270007B6803F00703FB600C4BDB68BB60BA685C
:101280004FF6FF031340BB60FB681A02BB681343B1
:1012900043F0BF6343F40033BB60044ABB68D360D0
:1012A00000BF1437BD465DF8047B704700ED00E0D9
:1012B00080B400AF044BDB681B0A03F00703184639
:1012C000BD465DF8047B704700ED00E080B483B05C
:1012D00000AF0346FB7197F90730002B0BDBFB795E
:1012E00003F01F02074997F907305B09012000FA54
:1012F00002F241F8232000BF0C37BD465DF8047BA5
:10130000704700BF00E100E080B483B000AF034647
:101310003960FB7197F90730002B0ADB3B68DAB2C2
:101320000C4997F907301201D2B20B4483F800231D
:101330000AE03B68DAB20849FB7903F00F03043B8B
:101340001201D2B20B441A7600BF0C37BD465DF8CD
:10135000047B704700E100E000ED00E080B489B05C
:1013600000AFF860B9607A60FB6803F00703FB61C7
:10137000FB69C3F10703042B28BF0423BB61FB698E
:101380000433062B02D9FB69033B00E000237B6199
:101390004FF0FF32BB6902FA03F3DA43BB681A402D
:1013A0007B699A404FF0FF317B6901FA03F3D9431F
:1013B0007B680B40134318462437BD465DF8047B19
:1013C0007047000080B582B000AF78607B68013B59
:1013D000B3F1807F01D301230FE00A4A7B68013B10
:1013E00053600F214FF0FF30FFF78EFF054B0022B7
:1013F0009A60044B07221A60002318460837BD463E
:1014000080BD00BF10E000E080B582B000AF786022
:101410007868FFF729FF00BF0837BD4680BD80B55B
:1014200086B000AF0346B9607A60FB7300237B612E
:10143000FFF73EFF78617A68B9687869FFF78EFF39
:10144000024697F90F3011461846FFF75DFF00BFBF
:101450001837BD4680BD80B582B000AF0346FB7132
:1014600097F907301846FFF731FF00BF0837BD4630
:1014700080BD80B582B000AF78607868FFF7A2FFCA
:10148000034618460837BD4680BD000080B500AF52
:101490000E4B1B680D4A43F4007313600B4B1B6823
:1014A0000A4A43F480631360084B1B68074A43F4FD
:1014B000807313600320FFF7A7FF0F2000F008F8E8
:1014C00002F042F80023184680BD00BF003C0240F5
:1014D00080B582B000AF7860124B1A68124B1B784F
:1014E00019464FF47A73B3FBF1F3B2FBF3F31846EA
:1014F000FFF7BFFF0346002B01D001230EE07B68FE
:101500000F2B0AD8002279684FF0FF30FFF787FFD2
:10151000064A7B681360002300E001231846083761
:10152000BD4680BD0000002008000020040000200F
:1015300080B400AF064B1B781A46064B1B68134459
:10154000044A136000BFBD465DF8047B704700BFCE
:10155000080000207800002080B400AF034B1B6817
:101560001846BD465DF8047B704700BF7800002038
:1015700080B584B000AF7860FFF7EEFFB8607B689D
:10158000FB60FB68B3F1FF3F05D00A4B1B781A469E
:10159000FB681344FB6000BFFFF7DEFF0246BB6839
:1015A000D31AFA689A42F7D800BF00BF1037BD4679
:1015B00080BD00BF0800002080B582B000AF786019
:1015C0007B68002B01D101237BE07B685B6A002BE9
:1015D00008D17B685B68B3F5827F09D07B68002205
:1015E000DA6105E07B6800221A617B6800225A619B
:1015F0007B6800229A627B6893F85130DBB2002B43
:1016000006D17B68002283F85020786802F00CF83D
:101610007B68022283F851207B681B681A687B680C
:101620001B6822F040021A607B685B6803F48272D8
:101630007B689B6803F404431A437B68DB6803F40C
:1016400000631A437B681B6903F002031A437B683B
:101650005B6903F001031A437B689B6903F4007321
:101660001A437B68DB6903F038031A437B681B6A03
:1016700003F0800342EA03017B689B6A03F4005293
:101680007B681B680A431A607B689B691B0C03F02C
:1016900004017B685B6A03F010027B681B680A43E5
:1016A0005A607B681B68DA697B681B6822F40062F9
:1016B000DA617B6800225A657B68012283F8512039
:1016C000002318460837BD4680BD80B588B000AFFE
:1016D000F860B9603B601346FB80FFF73DFFF8619F
:1016E000FB887B83FB6893F85130DBB2012B01D080
:1016F00002232AE1BB68002B02D0FB88002B01D11A
:10170000012322E1FB6893F85030012B01D1022321
:101710001BE1FB68012283F85020FB68032283F859
:101720005120FB6800225A65FB68BA681A63FB689F
:10173000FA889A86FB68FA88DA86FB6800229A6340
:10174000FB6800229A87FB680022DA87FB68002288
:101750005A64FB6800221A64FB689B68B3F5004F6B
:101760000FD1FB681B681A68FB681B6822F04002F7
:101770001A60FB681B681A68FB681B6842F48042A9
:101780001A60FB681B681B6803F04003402B07D0FE
:10179000FB681B681A68FB681B6842F040021A600D
:1017A000FB68DB68B3F5006F52D1FB685B68002B08
:1017B00002D07B8B012B45D1FB681B6B1A88FB6821
:1017C0001B68DA60FB681B6B9A1CFB681A63FB687A
:1017D000DB8E9BB2013B9AB2FB68DA8632E0FB6893
:1017E0001B689B6803F00203022B12D1FB681B6B82
:1017F0001A88FB681B68DA60FB681B6B9A1CFB6825
:101800001A63FB68DB8E9BB2013B9AB2FB68DA86F7
:1018100018E0FFF7A1FE0246FB69D31A3A689A4224
:1018200003D83B68B3F1FF3F02D13B68002B09D1DD
:10183000FB68012283F85120FB68002283F85020C6
:10184000032382E0FB68DB8E9BB2002BC7D153E001
:10185000FB685B68002B02D07B8B012B47D1FB68B8
:101860001A6BFB681B680C3312781A70FB681B6BD1
:101870005A1CFB681A63FB68DB8E9BB2013B9AB271
:10188000FB68DA8633E0FB681B689B6803F00203A1
:10189000022B13D1FB681A6BFB681B680C331278A0
:1018A0001A70FB681B6B5A1CFB681A63FB68DB8EA3
:1018B0009BB2013B9AB2FB68DA8618E0FFF74CFE58
:1018C0000246FB69D31A3A689A4203D83B68B3F1DF
:1018D000FF3F02D13B68002B09D1FB68012283F84E
:1018E0005120FB68002283F8502003232DE0FB6881
:1018F000DB8E9BB2002BC6D1FA693968F86800F01C
:10190000F7FC0346002B02D0FB6820225A65FB68D7
:101910009B68002B0AD100237B61FB681B68DB6896
:101920007B61FB681B689B687B617B69FB680122AC
:1019300083F85120FB68002283F85020FB685B6D20
:10194000002B01D0012300E0002318462037BD46BC
:1019500080BD80B588B002AFF860B9603B601346C7
:10196000FB80FB6893F85130DBB2012B01D00223DE
:1019700004E1BB68002B02D0FB88002B01D10123BE
:10198000FCE0FB685B68B3F5827F12D1FB689B6863
:10199000002B0ED1FB68042283F85120FA883B68A3
:1019A00000931346BA68B968F86800F0EBF803468C
:1019B000E4E0FFF7D1FD7861FB6893F85030012B2C
:1019C00001D10223DAE0FB68012283F85020FB6892
:1019D000042283F85120FB6800225A65FB68BA682C
:1019E0009A63FB68FA889A87FB68FA88DA87FB684B
:1019F00000221A63FB6800229A86FB680022DA86BE
:101A0000FB6800221A64FB6800225A64FB689B682A
:101A1000B3F5004F0FD1FB681B681A68FB681B68A1
:101A200022F040021A60FB681B681A68FB681B689A
:101A300022F480421A60FB681B681B6803F04003B5
:101A4000402B07D0FB681B681A68FB681B6842F0D4
:101A500040021A60FB68DB68002B70D135E0FB6840
:101A60001B689B6803F00103012B15D1FB681B6801
:101A700003F10C02FB689B6B1278D2B21A70FB6800
:101A80009B6B5A1CFB689A63FB68DB8F9BB2013B24
:101A90009AB2FB68DA8718E0FFF75EFD02467B69C1
:101AA000D31A3A689A4203D83B68B3F1FF3F02D198
:101AB0003B68002B09D1FB68012283F85120FB68A9
:101AC000002283F85020032358E0FB68DB8F9BB291
:101AD000002BC4D138E0FB681B689B6803F001034E
:101AE000012B13D1FB681B68DA68FB689B6B92B211
:101AF0001A80FB689B6B9A1CFB689A63FB68DB8F00
:101B00009BB2013B9AB2FB68DA8718E0FFF724FD2D
:101B100002467B69D31A3A689A4203D83B68B3F10C
:101B2000FF3F02D13B68002B09D1FB68012283F8FB
:101B30005120FB68002283F8502003231EE0FB683D
:101B4000DB8F9BB2002BC6D17A693968F86800F048
:101B500069FB0346002B02D0FB6820225A65FB6814
:101B6000012283F85120FB68002283F85020FB6893
:101B70005B6D002B01D0012300E0002318461837CD
:101B8000BD4680BD80B58AB000AFF860B9607A60AC
:101B90007B8001237B62FFF7DFFC3862FB6893F8F0
:101BA0005130FB77FB685B68BB617B88FB82FB7F06
:101BB000012B0CD0BB69B3F5827F06D1FB689B6813
:101BC000002B02D1FB7F042B01D002237FE1BB68F5
:101BD000002B05D07B68002B02D07B88002B01D125
:101BE000012374E1FB6893F85030012B01D10223EB
:101BF0006DE1FB68012283F85020FB6893F85130B7
:101C0000DBB2042B03D0FB68052283F85120FB686C
:101C100000225A65FB687A689A63FB687A88DA87DB
:101C2000FB687A889A87FB68BA681A63FB687A88C7
:101C3000DA86FB687A889A86FB6800221A64FB6859
:101C400000225A64FB681B681B6803F04003402BAA
:101C500007D0FB681B681A68FB681B6842F04002EB
:101C60001A60FB68DB68B3F5006F7ED1FB685B68C8
:101C7000002B02D0FB8A012B6CD1FB681B6B1A88EE
:101C8000FB681B68DA60FB681B6B9A1CFB681A63B5
:101C9000FB68DB8E9BB2013B9AB2FB68DA8659E0A7
:101CA000FB681B689B6803F00203022B1BD1FB68D7
:101CB000DB8E9BB2002B16D07B6A012B13D1FB6805
:101CC0001B6B1A88FB681B68DA60FB681B6B9A1C2D
:101CD000FB681A63FB68DB8E9BB2013B9AB2FB6820
:101CE000DA8600237B62FB681B689B6803F00103B4
:101CF000012B19D1FB68DB8F9BB2002B14D0FB6842
:101D00001B68DA68FB689B6B92B21A80FB689B6B5E
:101D10009A1CFB689A63FB68DB8F9BB2013B9AB20B
:101D2000FB68DA8701237B62FFF716FC02463B6AF9
:101D3000D31A3A6B9A420DD83B6BB3F1FF3F09D0EF
:101D4000FB68012283F85120FB68002283F85020B1
:101D50000323BCE0FB68DB8E9BB2002BA0D1FB68A9
:101D6000DB8F9BB2002B9BD182E0FB685B68002B72
:101D700002D0FB8A012B71D1FB681A6BFB681B68D0
:101D80000C3312781A70FB681B6B5A1CFB681A63C1
:101D9000FB68DB8E9BB2013B9AB2FB68DA865DE0A2
:101DA000FB681B689B6803F00203022B1CD1FB68D5
:101DB000DB8E9BB2002B17D07B6A012B14D1FB6802
:101DC0001A6BFB681B680C3312781A70FB681B6B6C
:101DD0005A1CFB681A63FB68DB8E9BB2013B9AB20C
:101DE000FB68DA8600237B62FB681B689B6803F054
:101DF0000103012B19D1FB68DB8F9BB2002B14D0A0
:101E0000FB681B68DA68FB689B6BD2B21A70FB68D0
:101E10009B6B5A1CFB689A63FB68DB8F9BB2013B90
:101E20009AB2FB68DA8701237B62FFF795FB0246D3
:101E30003B6AD31A3A6B9A4203D83B6BB3F1FF3F2C
:101E400002D13B6B002B09D1FB68012283F85120A2
:101E5000FB68002283F85020032338E0FB68DB8E08
:101E60009BB2002B9CD1FB68DB8F9BB2002B97D1E0
:101E70003A6A396BF86800F03BFA0346002B08D049
:101E8000FB6820225A65FB68002283F8502001235A
:101E90001DE0FB689B68002B0AD100233B61FB68B7
:101EA0001B68DB683B61FB681B689B683B613B69A7
:101EB000FB68012283F85120FB68002283F8502040
:101EC000FB685B6D002B01D0012300E00023184666
:101ED0002837BD4680BD000080B588B000AF78606F
:101EE0007B681B685B68FB617B681B689B68BB61E8
:101EF000BB699B0903F00103002B0FD1BB6903F001
:101F00000103002B0AD0FB699B0903F00103002B9E
:101F100004D07B681B6C78689847D7E0BB695B0886
:101F200003F00103002B0AD0FB69DB0903F0010376
:101F3000002B04D07B685B6C78689847C6E0BB696F
:101F40005B0903F00103002B0CD1BB699B0903F073
:101F50000103002B06D1BB691B0A03F00103002B10
:101F600000F0B480FB695B0903F00103002B00F073
:101F7000AD80BB699B0903F00103002B23D07B6874
:101F800093F85130DBB2032B11D07B685B6D43F0CB
:101F900004027B685A6500237B617B681B68DB68F1
:101FA0007B617B681B689B687B617B690BE000231E
:101FB0003B617B681B68DB683B617B681B689B68D7
:101FC0003B613B6982E0BB695B0903F00103002BC5
:101FD00014D07B685B6D43F001027B685A65002377
:101FE000FB607B681B689B68FB607B681B681A68EA
:101FF0007B681B6822F040021A60FB68BB691B0A01
:1020000003F00103002B0CD07B685B6D43F00802EA
:102010007B685A650023BB607B681B689B68BB605C
:10202000BB687B685B6D002B4FD07B681B685A6870
:102030007B681B6822F0E0025A607B68012283F80B
:102040005120FB6903F00203002B04D1FB6903F06C
:102050000103002B34D07B681B685A687B681B68BF
:1020600022F003025A607B68DB6C002B11D07B6886
:10207000DB6C184A1A657B68DB6C1846FFF7D2F8F0
:102080000346002B05D07B685B6D43F040027B6804
:102090005A657B689B6C002B16D07B689B6C0D4A45
:1020A0001A657B689B6C1846FFF7BCF80346002B4B
:1020B0000AD07B685B6D43F040027B685A6503E0A1
:1020C000786800F009F800E000BF00BF2037BD4687
:1020D00080BD00BFED20000880B483B000AF786001
:1020E00000BF0C37BD465DF8047B704780B584B0F7
:1020F00000AF78607B689B6BFB60FB680022DA872F
:10210000FB680022DA86F868FFF7E6FF00BF1037A9
:10211000BD4680BD80B588B000AFF860B9603B6057
:102120001346FB71FFF718FA0246BB6A9B1A3A681E
:102130001344FB61FFF710FAB861394B1B685B0170
:102140001B0DFA6902FB03F37B6155E03B68B3F1B9
:10215000FF3F51D0FFF700FA0246BB69D31AFA6974
:102160009A4202D9FB69002B3DD1FB681B685A6873
:10217000FB681B6822F0E0025A60FB685B68B3F5FD
:10218000827F11D1FB689B68B3F5004F04D0FB68D8
:102190009B68B3F5806F07D1FB681B681A68FB6802
:1021A0001B6822F040021A60FB689B6AB3F5005F6F
:1021B0000FD1FB681B681A68FB681B6822F4005289
:1021C0001A60FB681B681A68FB681B6842F40052BF
:1021D0001A60FB68012283F85120FB68002283F813
:1021E0005020032318E07B69002B02D10023FB6100
:1021F00002E07B69013B7B61FB681B689A68BB68F6
:102200001340BA689A420CBF01230023DBB21A467E
:10221000FB799A429AD1002318462037BD4680BDEB
:102220000000002080B586B002AFF860B9607A6027
:10223000FB685B68B3F5827F11D1FB689B68B3F5DF
:10224000004F04D0FB689B68B3F5806F07D1FB6833
:102250001B681A68FB681B6822F040021A60FB6862
:102260005B68B3F5827F2AD1FB689B68B3F5806F0A
:1022700012D07B680093BB6800228021F868FFF7CA
:1022800049FF0346002B2DD0FB685B6D43F0200215
:10229000FB685A65032326E07B680093BB68002235
:1022A0000121F868FFF736FF0346002B1AD0FB68C0
:1022B0005B6D43F02002FB685A65032313E07B68E3
:1022C0000093BB6800220121F868FFF723FF034653
:1022D000002B07D0FB685B6D43F02002FB685A655A
:1022E000032300E0002318461037BD4680BD0000E0
:1022F00080B588B002AFF860B9607A607B680093FF
:10230000BB6801220221F868FFF704FF0346002B97
:1023100007D0FB685B6D43F02002FB685A6503231E
:1023200032E01B4B1B681B4AA2FB03235B0D4FF4DF
:102330007A7202FB03F37B61FB685B68B3F5827F13
:1023400012D17B680093BB6800228021F868FFF7F8
:10235000E1FE0346002B16D0FB685B6D43F02002C4
:10236000FB685A6503230FE07B69002B0AD07B6969
:10237000013B7B61FB681B689B6803F08003802B3B
:10238000F2D000E000BF002318461837BD4680BDDC
:1023900000000020819F5E1680B582B000AF78609B
:1023A0007B68002B01D1012342E07B6893F8413028
:1023B000DBB2002B06D17B68002283F840207868CE
:1023C00001F0CEF97B68242283F841207B681B68EA
:1023D000DA687B681B6822F40052DA60786800F0E3
:1023E00073F97B681B681A697B681B6822F490424A
:1023F0001A617B681B685A697B681B6822F02A0295
:102400005A617B681B68DA687B681B6842F400527B
:10241000DA607B6800225A647B68202283F84120BE
:102420007B68202283F842207B6800225A630023C5
:1024300018460837BD4680BD80B58AB002AFF86047
:10244000B9603B601346FB8000237B61FB6893F817
:102450004130DBB2202B75D1BB68002B02D0FB884A
:10246000002B01D101236EE0FB6800225A64FB6857
:10247000212283F84120FFF76FF87861FB68FA8822
:102480009A84FB68FA88DA84FB689B68B3F5805FFE
:1024900008D1FB681B69002B04D10023FB61BB68DA
:1024A000BB6103E0BB68FB610023BB612EE03B68BE
:1024B00000937B6900228021F86800F048F8034609
:1024C000002B05D0FB68202283F8412003233AE04B
:1024D000FB69002B0BD1BB691B881A46FB681B6884
:1024E000C2F308025A60BB690233BB6107E0FB69B3
:1024F0001A78FB681B685A60FB690133FB61FB6853
:10250000DB8C9BB2013B9AB2FB68DA84FB68DB8C04
:102510009BB2002BCBD13B6800937B69002240210A
:10252000F86800F014F80346002B05D0FB68202261
:1025300083F84120032306E0FB68202283F8412032
:10254000002300E0022318462037BD4680BD80B539
:1025500086B000AFF860B9603B601346FB713BE0AA
:102560003B6AB3F1FF3F37D0FEF7F6FF02463B6808
:10257000D31A3A6A9A4202D33B6A002B01D1032351
:102580003AE0FB681B68DB6803F00403002B23D0F0
:10259000BB68802B20D0BB68402B1DD0FB681B681C
:1025A0001B6803F00803082B16D100237B61FB682E
:1025B0001B681B687B61FB681B685B687B617B69D0
:1025C000F86800F01DF8FB6808225A64FB680022D6
:1025D00083F8402001230FE0FB681B681A68BB6882
:1025E0001340BA689A420CBF01230023DBB21A469B
:1025F000FB799A42B4D0002318461837BD4680BDF7
:1026000080B495B000AF78607B681B680C337B6347
:102610007B6B53E8003F3B633B6B23F49073FB649D
:102620007B681B680C33FA6C3A64FB63F96B3A6C99
:1026300041E80023BB63BB6B002BE5D17B681B68C3
:1026400014333B623B6A53E8003FFB61FB6923F0B4
:102650000103BB647B681B681433BA6CFA62BB620B
:10266000B96AFA6A41E800237B627B6A002BE5D1F4
:102670007B681B6B012B19D17B681B680C33FB60DB
:10268000FB6853E8003FBB60BB6823F010037B642A
:102690007B681B680C337A6CBA617B617969BA69B3
:1026A00041E800233B613B69002BE5D17B68202298
:1026B00083F842207B6800221A6300BF5437BD466E
:1026C0005DF8047B704700002DE9B04FC0B000AF4B
:1026D000C7F8F400D7F8F4301B681B6923F44050A6
:1026E000D7F8F430D968D7F8F4301A6840EA010313
:1026F0001361D7F8F4309A68D7F8F4301B691A439D
:10270000D7F8F4305B691A43D7F8F430DB69134328
:10271000C7F8F830D7F8F4301B68DB6823F41641AB
:1027200021F00C01D7F8F4301A68D7F8F8300B43D1
:10273000D360D7F8F4301B685B6923F44070D7F896
:10274000F4309969D7F8F4301A6840EA010353610C
:10275000D7F8F4301A688F4B9A4205D0D7F8F43086
:102760001A688D4B9A4204D1FEF760FBC7F8FC0053
:1027700003E0FEF747FBC7F8FC00D7F8F430DB694D
:10278000B3F5004F40F00C81D7F8FC300022C7F8B9
:10279000E830C7F8EC20D7E93A4522462B46911895
:1027A000B9655B41FB65D7E91623214612EB0108A9
:1027B000294643EB01094FF000024FF000034FEAB6
:1027C000C90343EA58734FEAC80290469946234624
:1027D00018EB0303C7F8E0302B4649EB0303C7F8B7
:1027E000E430D7F8F4305B680022C7F8D830C7F877
:1027F000DC20D7E936120B46DB183B65134642EB6B
:1028000003037B65D7E91423D7E93801FDF7C0FC42
:1028100002460B46614BA3FB02235B091C01D7F860
:10282000FC300022C7F8D030C7F8D420D7E934896B
:1028300042464B469118B9645B41FB64D7E91223C9
:10284000414612EB010A494643EB010B4FF00002EF
:102850004FF000034FEACB0343EA5A734FEACA0230
:1028600092469B4643461AEB0303C7F8C8304B46D3
:102870004BEB0303C7F8CC30D7F8F4305B68002289
:10288000C7F8C030C7F8C420D7E930120B46DB18B0
:102890003B64134642EB03037B64D7E91023D7E97B
:1028A0003201FDF775FC02460B4611463B4BA3FB7C
:1028B00001235B09642202FB03F3CB1ADB0003F163
:1028C0003202364BA3FB02235B095B0003F4F8736F
:1028D0001C44D7F8FC300022C7F8B830C7F8BC2039
:1028E000D7E92E8942464B469118B9635B41FB6399
:1028F000D7E90E2341465118396349464B417B6362
:102900004FF000024FF00003D7E90CAB5946CB0063
:10291000514643EA51735146CA00104619460346D0
:1029200042469B18C7F8B0304B460A4642EB0303B9
:10293000C7F8B430D7F8F4305B680022C7F8A83085
:10294000C7F8AC20D7E92A120B46DB18BB62134646
:1029500042EB0303FB62D7E90A23D7E92C01FDF719
:1029600017FC02460B460D4BA3FB02135B096421C7
:1029700001FB03F3D31ADB003233084AA2FB032323
:102980005B0903F00702D7F8F4301B6822449A6011
:1029900006E100BF00100140001401401F85EB510B
:1029A000D7F8FC300022C7F8A030C7F8A420D7E938
:1029B000288942464B46911839625B417B62D7E9D0
:1029C000082341465418494643EB01054FF00002E5
:1029D0004FF00003EB0043EA5473E20014461D4637
:1029E0004346E318C7F898304B4645EB0303C7F856
:1029F0009C30D7F8F4305B680022C7F89030C7F8F5
:102A000094204FF000024FF00003D7E924452946F7
:102A10008B00214643EA917321468A00D7E92601BB
:102A2000FDF7B6FB02460B46604BA3FB02235B0996
:102A30001C01D7F8FC300022C7F88830C7F88C207A
:102A4000D7E9228942464B469118B9615B41FB6147
:102A5000D7E9062341465118396149464B417B610C
:102A60004FF000024FF00003D7E904AB5946CB000A
:102A7000514643EA51735146CA001046194603466F
:102A800042469B18C7F880304B460A4642EB030388
:102A9000C7F88430D7F8F4305B680022BB67FA6768
:102AA0004FF000024FF00003D7E91E8949468B0022
:102AB000414643EA917341468A00D7E92001FDF778
:102AC00067FB02460B461146384BA3FB01235B090B
:102AD000642202FB03F3CB1A1B013233334AA2FBFD
:102AE00003235B0903F0F0031C44D7F8FC300022F9
:102AF0003B677A67D7E91C8942464B469118B96013
:102B00005B41FB60D7E902234146511839604946D1
:102B10004B417B604FF000024FF00003D7E900AB60
:102B20005946CB00514643EA51735146CA001046FC
:102B30001946034642469B18BB664B460A4642EB83
:102B40000303FB66D7F8F4305B6800223B667A66C5
:102B50004FF000024FF00003D7E9188949468B0077
:102B6000414643EA917341468A00D7E91A01FDF7CD
:102B70000FFB02460B460D4BA3FB02135B096421BE
:102B800001FB03F3D31A1B013233084AA2FB0323D0
:102B90005B0903F00F02D7F8F4301B6822449A60F7
:102BA00000BF07F58077BD46BDE8B08F1F85EB51AC
:102BB00080B487B000AFF860B9601346FB71FB6862
:102BC000AA221A70FB680133FA791A70BB68B3F94C
:102BD00000301B121AB2FB680233D2B21A70BB6803
:102BE000B3F90020FB680333D2B21A70BB68B3F9A3
:102BF00002301B121AB2FB680433D2B21A70BB68DF
:102C0000B3F90220FB680533D2B21A70BB68B3F97E
:102C100004301B121AB2FB680633D2B21A70BB68BA
:102C2000B3F90420FB680733D2B21A70BB68B3F95A
:102C300006301B121AB2FB680833D2B21A70BB6896
:102C4000B3F90620FB680933D2B21A70BB68B3F936
:102C500008301B121AB2FB680A33D2B21A70BB6872
:102C6000B3F90820FB680B33D2B21A70BB68B3F912
:102C70000A301B121AB2FB680C33D2B21A70BB684E
:102C8000B3F90A20FB680D33D2B21A70BB68B3F9EE
:102C90000C301B121AB2FB680E33D2B21A70BB682A
:102CA000B3F90C20FB680F33D2B21A700023FB7506
:102CB00000233B6109E03B69FA6813441A78FB7D05
:102CC0005340FB753B6901333B613B690F2BF2DDE0
:102CD000FB681033FA7D1A70FB68113355221A70A5
:102CE00000BF1C37BD465DF8047B704780B483B0DD
:102CF00000AF00237B60204B1B6B1F4A43F4001383
:102D000013631D4B1B6B03F400137B607B681B4B31
:102D100000221A6000BF194B1B6803F00103002B4F
:102D2000F9D1164B4FF488621A60144B144A9A601A
:102D3000124B00225A61134B00221A6000BF114B44
:102D40001B6803F00103002BF9D10E4B4FF4806296
:102D50001A600C4B0A4A9A600A4B00225A610A4BCD
:102D60005B68094A43F00303536000BF0C37BD465C
:102D70005DF8047B704700BF003802408860024065
:102D80000C3C004010600240003C004080B485B024
:102D900000AFF860B9601346FB80274B1B68264ADA
:102DA00023F001031360254B1B68244A23F0010321
:102DB000136000BF204B1B6803F00103002BF9D107
:102DC00000BF1E4B1B6803F00103002BF9D11C4B05
:102DD0004FF47462DA601A4B3D229A60194B1B68FB
:102DE000184A23F040031360164BDB68154B9B68B1
:102DF000114AFB68D360104AFB8853600F4ABB68D6
:102E0000D3600E4AFB8853600C4B1B680B4A43F09F
:102E100001031360084B1B68074A43F0010313606A
:102E2000084B1B68074A43F04003136000BF143788
:102E3000BD465DF8047B7047886002401060024028
:102E400000600240003C0040F0B597B006AFFEF7CE
:102E50001DFB00F049F900F09DFA00F047FA00F080
:102E60006FFA00F0D9F900F00DFA00F0A7F907F1B8
:102E70001C0300221A605A609A60DA601A611023FB
:102E8000FB6101233B6200237B620323BB6207F1EA
:102E90001C0319468048FDF7DDFF012210217E4802
:102EA000FEF774F910237C4A7C497D4800F0D0FD80
:102EB0000346002B10D04FF0FF330A2279497A489D
:102EC000FFF7BAFA4FF400517848FEF778F964201A
:102ED000FEF74EFB00BFF5E74FF0FF3309227449C0
:102EE0007148FFF7A9FA24220021724801F006F880
:102EF000704BAA221A706F4B55225A746D4BAA223E
:102F00009A746C4B552283F8232007F108030022A2
:102F10001A605A609A60DA601A614FF40043BB602D
:102F20000223FB6001233B6102237B610623BB611B
:102F300007F1080319465848FDF78CFF00237B6012
:102F40005D4B5B6C5C4A43F4804353645A4B5B6C4F
:102F500003F480437B607B68584B5B69574A23F4DA
:102F600070435361564B9B68554A43F4004393604A
:102F7000534BDB68524A23F40043D360504B1B6829
:102F80004F4A43F400431360002201212820FEF73A
:102F900046FA2820FEF75FFAFFF7A8FE494B002209
:102FA0001A70122248494348FFF7F0FE47493C484F
:102FB00000F09BFD434B1B78DBB283F0010387F8E5
:102FC0003F3097F83F201346DB0013445B00394A3B
:102FD000134401223D491846FFF7EAFD394A97F8A4
:102FE0003F301370FEF7B8FAB863394B1B68BA6B01
:102FF000D31A092B0DD9364ABB6B13600122334912
:103000003448FFF7D5FD0523122232493248FFF735
:1030100013FAFEF7A1FA7863304B1B687A6BD31A68
:10302000B3F5FA7FC2D32D4A7B6B13604FF4804116
:103030001E48FEF7C4F8254BB3F900301E46234B5B
:10304000B3F902301A46214BB3F9043019461F4B2D
:10305000B3F9063018461D4BB3F908301C461B4B1C
:10306000B3F90A301D46194BB3F90C30059304959A
:1030700003940290019100923346194A8021194825
:1030800000F006FF38633B6B9AB24FF0FF331549EF
:103090000548FFF7D1F989E700000240D000002081
:1030A000100200201C48000880010020000402409B
:1030B000284800082C020020003802400038014057
:1030C000003C014050020020540200201C0200205D
:1030D000FC02002068020020C8010020000300203C
:1030E000344800087C02002080B594B000AF07F19E
:1030F000200330220021184600F000FF07F10C03E6
:1031000000221A605A609A60DA601A610023BB607C
:10311000284B1B6C274A43F080531364254B1B6CD0
:1031200003F08053BB60BB6800237B60224B1B68AD
:10313000214A43F4804313601F4B1B6803F4804310
:103140007B607B6801233B624FF480337B62022308
:10315000BB634FF48003FB6319233B644FF4A873F4
:103160007B640223BB640423FB6407F1200318463D
:10317000FDF71AFA0346002B01D000F09DF90F234A
:10318000FB6002233B6100237B614FF4A053BB61D2
:103190004FF48053FB6107F10C0305211846FDF73E
:1031A0007BFC0346002B01D000F086F900BF5037AE
:1031B000BD4680BD003802400070004080B500AFC1
:1031C000124B134A1A60114B124A5A600F4B0022DD
:1031D0009A600E4B0022DA600C4B4FF480421A6169
:1031E0000A4B00225A61094B00229A61074B0022C8
:1031F000DA61064B00221A620448FDF791F8034693
:10320000002B01D000F058F900BF80BD7C000020E9
:1032100000540040A086010080B500AF174B184A4B
:103220001A60164B4FF482725A60144B00229A6057
:10323000124B0022DA60114B00221A610F4B002260
:103240005A610E4B4FF480229A610C4B1022DA61C6
:103250000A4B00221A62094B00225A62074B0022D5
:103260009A62064B0A22DA620448FEF7A5F9034681
:10327000002B01D000F020F900BF80BDD00000205D
:103280000030014080B500AF164B174A1A60154B4D
:1032900000225A60134B00229A60124B0022DA601F
:1032A000104B00221A610F4B00225A610D4B002275
:1032B0009A610C4B0022DA610A4B00221A62094B18
:1032C00000225A62074B00229A62064B0A22DA62F7
:1032D0000448FEF771F90346002B01D000F0ECF82A
:1032E00000BF80BD28010020003C004080B500AF39
:1032F000114B124A1A60104B4FF4E1325A600E4BD8
:1033000000229A600C4B0022DA600B4B00221A61FB
:10331000094B0C225A61084B00229A61064B00228D
:10332000DA610548FFF738F80346002B01D000F0BA
:10333000C3F800BF80BD00BF80010020004C0040EA
:1033400080B500AF114B124A1A60104B4FF4612246
:103350005A600E4B00229A600C4B0022DA600B4B35
:1033600000221A61094B0C225A61084B00229A6113
:10337000064B0022DA610548FFF70EF80346002BE2
:1033800001D000F099F800BF80BD00BFC801002047
:103390000014014080B58AB000AF07F11403002289
:1033A0001A605A609A60DA601A6100233B612E4B02
:1033B0001B6B2D4A43F0800313632B4B1B6B03F0F5
:1033C00080033B613B690023FB60274B1B6B264A54
:1033D00043F004031363244B1B6B03F00403FB60F3
:1033E000FB680023BB60204B1B6B1F4A43F00103AB
:1033F00013631D4B1B6B03F00103BB60BB68002311
:103400007B60194B1B6B184A43F002031363164B86
:103410001B6B03F002037B607B6800224FF460416A
:103420001248FDF7B3FE13237B614FF48813BB6191
:103430000023FB6107F1140319460D48FDF70AFD4F
:103440004FF460437B610123BB610023FB610023D8
:103450003B6207F1140319460448FDF7FBFC00BF6B
:103460002837BD4680BD00BF00380240000402403E
:103470000008024080B582B000AF0346FB80FB88A5
:10348000B3F5004F0ED1094B1B78DBB21A46134639
:10349000DB0013445B00064A134412220549184618
:1034A000FFF774FC00BF0837BD4680BD5002002006
:1034B0002C0200205402002080B400AF72B600BF7E
:1034C00000BFFDE780B400AF00BFFDE780B400AFF0
:1034D00000BFFDE780B400AF00BFFDE780B400AFE0
:1034E00000BFFDE780B400AF00BFFDE780B400AFD0
:1034F00000BFBD465DF8047B704780B400AF00BFDD
:10350000BD465DF8047B704780B400AF00BFBD4688
:103510005DF8047B704780B500AFFEF709F800BF87
:1035200080BD000080B500AF0248FEF7D5FC00BFAB
:1035300080BD00BF2801002080B500AF4FF40040DF
:10354000FDF758FE00BF80BD80B483B000AF0023FC
:103550007B60104B5B6C0F4A43F4804353640D4B0C
:103560005B6C03F480437B607B6800233B60094B0A
:103570001B6C084A43F080531364064B1B6C03F02A
:1035800080533B603B6800BF0C37BD465DF8047B51
:10359000704700BF0038024080B58AB000AF786045
:1035A00007F1140300221A605A609A60DA601A6107
:1035B0007B681B68194A93422CD100233B61184B4E
:1035C0001B6B174A43F002031363154B1B6B03F08D
:1035D00002033B613B694FF440737B611223BB6183
:1035E0000023FB6103233B6204237B6207F1140386
:1035F00019460C48FDF72EFC0023FB60084B1B6CA2
:10360000074A43F400131364054B1B6C03F40013C7
:10361000FB60FB6800BF2837BD4680BD00540040FA
:10362000003802400004024080B58CB000AF7860E2
:1036300007F11C0300221A605A609A60DA601A616E
:103640007B681B68414A93422CD10023BB61404BED
:103650005B6C3F4A43F4805353643D4B5B6C03F413
:103660008053BB61BB6900237B61394B1B6B384ABC
:1036700043F001031363364B1B6B03F001037B61C3
:103680007B69F023FB6102233B6200237B620323FF
:10369000BB620523FB6207F11C0319462D48FDF7A9
:1036A000D9FB4FE07B681B682B4A93424AD1002329
:1036B0003B61274B1B6C264A43F400431364244BA5
:1036C0001B6C03F400433B613B690023FB60204B10
:1036D0001B6B1F4A43F0010313631D4B1B6B03F06D
:1036E0000103FB60FB680023BB60194B1B6B184A8E
:1036F00043F002031363164B1B6B03F00203BB6022
:10370000BB684FF40043FB6102233B6200237B62F2
:103710000323BB620623FB6207F11C0319460D4815
:10372000FDF798FB3823FB6102233B6200237B6299
:103730000323BB620623FB6207F11C0319460748FB
:10374000FDF788FB00BF3037BD4680BD003001402B
:103750000038024000000240003C004000040240EB
:1037600080B58CB000AF786007F11C0300221A60AE
:103770005A609A60DA601A617B681B68324A934229
:103780002DD10023BB61314B1B6C304A43F4002325
:1037900013642E4B1B6C03F40023BB61BB69002335
:1037A0007B612A4B1B6B294A43F004031363274BAD
:1037B0001B6B03F004037B617B694FF44063FB6187
:1037C00002233B6200237B620323BB620823FB626C
:1037D00007F11C0319461E48FDF73CFB30E07B68EF
:1037E0001B681C4A93422BD100233B61174B5B6C37
:1037F000164A43F020035364144B5B6C03F0200320
:103800003B613B690023FB60104B1B6B0F4A43F08D
:10381000040313630D4B1B6B03F00403FB60FB6895
:10382000C023FB6102233B6200237B620323BB6254
:103830000823FB6207F11C0319460548FDF70AFB44
:1038400000BF3037BD4680BD004C0040003802400C
:10385000000802400014014080B586B000AF7860D7
:10386000144A154BD31A7B617B693B61134B1B6870
:10387000002B02D1114B124A1A60104B1A687B6858
:1038800013443A699A4207D200F040FB03460C22E7
:103890001A604FF0FF3309E0084B1B68FB60074BD1
:1038A0001A687B681344054A1360FB68184618378A
:1038B000BD4680BD0000022000040000040300207B
:1038C00050040020DFF834D0FCF718FD0C480D49F7
:1038D0000D4A002302E0D458C4500433C4188C426B
:1038E000F9D30A4A0A4C002301E013600432A242D1
:1038F000FBD300F011FBFFF7A7FA7047000002208E
:10390000000000205C000020C44800085C0000208B
:1039100050040020FEE780B582B000AF78607B687D
:1039200058687B681B8900221946FDF72FFC00BFF1
:103930000837BD4680BD80B582B000AF78607B6837
:1039400058687B681B8901221946FDF71FFC00BFE0
:103950000837BD4680BD80B586B002AF78600B46A3
:10396000FB70FB7863F07F03DBB23B7300237B7358
:103970007868FFF7D0FF7B68186807F1080207F145
:103980000C014FF0FF3300930223FEF7FBF8786839
:10399000FFF7D1FF7B7A18461037BD4680BD80B552
:1039A00084B000AF78600B46FB701346BB70FB78A9
:1039B00003F07F03DBB23B73BB787B737868FFF760
:1039C000AAFF7B68186807F10C014FF0FF33022251
:1039D000FDF77BFE7868FFF7AEFF00BF1037BD46EE
:1039E00080BD80B586B000AFF8607A601A460B469D
:1039F000FB7213463B81FB7A63F07F03DBB2FB75FE
:103A0000F868FFF788FFFB68186807F117014FF0A7
:103A1000FF330122FDF759FEFB6818683A894FF021
:103A2000FF337968FDF795FFF868FFF784FF00BF63
:103A30001837BD4680BD80B582B000AF7860752173
:103A40007868FFF788FF034618460837BD4680BDF3
:103A500080B586B000AFF860B9607A607B80FB68A3
:103A6000BA681A60FB687A685A60FB687A881A81BB
:103A7000F868FFF760FF0A20FDF77AFD01221121A7
:103A8000F868FFF78CFF0A20FDF772FDF868FFF772
:103A9000D2FF0346FB75FB7D6F2B01D0012320E095
:103AA00000227621F868FFF77AFF0120FDF760FD1C
:103AB00006224F21F868FFF772FF0120FDF758FD3D
:103AC00006225021F868FFF76AFF0120FDF750FD3C
:103AD0000F224E21F868FFF762FF3220FDF748FD04
:103AE000002318461837BD4680BD80B586B000AFAC
:103AF0007860396007F108020E231D217868FFF70E
:103B000070FF3B7A1BB21B021AB27B7A1BB21343C3
:103B10001AB23B689A81BB7A1BB21B021AB2FB7ABB
:103B20001BB213431AB23B681A803B7B1BB21B02C9
:103B30001AB27B7B1BB213431AB23B685A80BB7B21
:103B40001BB21B021AB2FB7B1BB213431AB23B68B7
:103B50009A803B7C1BB21B021AB27B7C1BB21343C4
:103B60001AB23B68DA80BB7C1BB21B021AB2FB7C28
:103B70001BB213431AB23B681A813B7D1BB21B0276
:103B80001AB27B7D1BB213431AB23B685A810023E1
:103B900018461837BD4680BD2DE9F047089D0F46F1
:103BA00004468C46002B48D18A42164661D9B2FAA7
:103BB00082F34BB1C3F1200201FA03FC20FA02F2B6
:103BC0009E4042EA0C0C9C404FEA164EB7B2BCFB3A
:103BD000FEF1220C0EFB11CC42EA0C4201FB07F075
:103BE000904209D9B21801F1FF3C80F0EE8090427A
:103BF00040F2EB8002393244121AA4B2B2FBFEF05A
:103C00000EFB102244EA024400FB07F7A74209D941
:103C1000341900F1FF3280F0DA80A74240F2D780F9
:103C20003444023840EA0140E41B00211DB1DC406D
:103C30000023C5E90043BDE8F0878B4206D90DB1EA
:103C4000C5E9000100210846BDE8F087B3FA83F119
:103C5000002948D1BB4202D3824200F20781841A74
:103C600067EB030201209446002DE4D0C5E9004C27
:103C7000E1E7002A00F09280B2FA82F3002B40F0D4
:103C8000A8808A1A4FEA164E1FFA86FC0121200CE2
:103C9000B2FBFEF70EFB172240EA02420CFB07F0D4
:103CA000904207D9B21807F1FF3802D2904200F2D1
:103CB000E2804746121AA4B2B2FBFEF00EFB1022BD
:103CC00044EA02440CFB00FCA44507D9341900F176
:103CD000FF3202D2A44500F2CB801046A4EB0C04C4
:103CE00040EA0740A2E7C1F120068B4022FA06FC19
:103CF0004CEA030C07FA01F420FA06F3F7404FEA06
:103D00001C49234300FA01F81FFA8CFEB7FBF9F0B7
:103D10001C0C09FB107744EA074400FB0EF7A7428E
:103D200002FA01F20AD91CEB040400F1FF3A80F018
:103D30009B80A74240F2988002386444E41B9FB203
:103D4000B4FBF9F309FB134447EA044403FB0EFEFA
:103D5000A64509D91CEB040403F1FF3780F08280EB
:103D6000A6457FD9023B644443EA0040A4EB0E041D
:103D7000A0FB02E7BC427346B94663D360D05DB195
:103D8000B8EB030264EB090404FA06F622FA01F325
:103D90001E43CC40C5E9006400214CE76208480896
:103DA00042EAC1710B0C43EA00438AB242EA034281
:103DB000B3FBF6F1E407B4463746B6461F23B0FB23
:103DC000F6F0D21B41EA004161E7614614E7104674
:103DD00028E7C3F1200120FA01F29E4027FA01F101
:103DE0009F403A434FEA164E1FFA86FCB1FBFEF79E
:103DF0000EFB1710110C41EA004107FB0CF8884537
:103E000004FA03F43AD9711807F1FF3001D288455A
:103E10001FD8A1EB0801B1FBFEF808FB0CF70EFB65
:103E2000181192B242EA0142BA422FD2B21808F1F6
:103E3000FF31C6D2BA42C4D2A8F102013244C0E76F
:103E4000F0459CD2BEEB020367EB0C070138B94684
:103E500095E7A6EB08084144B81EB1FBFEF808FB45
:103E60000CF7DCE73B467FE7504667E70846FBE692
:103E70003444023832E7023F32441BE7A1EB080129
:103E80003846B1FBFEF808FB0CF7C8E7414698E757
:103E90000CB430B5184B0C1E1D689DB008DA8B238E
:103EA0002B604FF0FF301DB0BDE8304002B07047CE
:103EB0004FF40273ADF814304FF000031B9314BF9E
:103EC00004F1FF332346049307934FF6FF730290E8
:103ED0000690ADF81630209A21AB02A9284601932E
:103EE00000F098F9431CBCBF8B232B60002CDAD068
:103EF000029B00221A70D6E70C0000200244034601
:103F0000934200D1704703F8011BF9E7014B186891
:103F1000704700BF0C00002070B50D4B0D4D5B1BB2
:103F20009C100026A64209D100F06CFC0A4D0B4BF8
:103F30005B1B9C100026A64205D170BD55F8043BC2
:103F400098470136EEE755F8043B98470136F2E70B
:103F5000BC480008BC480008BC480008C04800082D
:103F60007047704738B50546002941D051F8043CE8
:103F70000C1F002BB8BFE41800F0E0F81D4A1368CE
:103F800033B9636014602846BDE8384000F0DCB8FF
:103F9000A34208D9206821188B4201BF19685B68C9
:103FA00009182160EDE71A465B680BB1A342FAD904
:103FB00011685018A0420BD1206801445018834268
:103FC0001160E0D118685B68536008441060DAE75C
:103FD00002D90C232B60D6E7206821188B4204BF3E
:103FE00019685B68636004BF091821605460CAE700
:103FF00038BD00BF4C04002070B50F4E0C46316830
:10400000054611B900F0AAFB30602146284600F0B1
:10401000A5FB431C03D14FF0FF34204670BDC41CE8
:1040200024F00304A042F8D0211A284600F096FBA1
:104030000130F2D1EFE700BF480400202DE9F8433A
:10404000CD1C25F0030508350C2D38BF0C25002D9F
:10405000064601DBA94204D90C2333600020BDE8E9
:10406000F883DFF8D48000F069F8D8F800301C46F7
:1040700044BB29463046FFF7BFFF431C044658D1D6
:10408000D8F800402746002F43D1002C4BD023689E
:104090003946304604EB030900F060FB814542D10C
:1040A00021686D1A29463046FFF7A6FF01303AD045
:1040B00023682B442360D8F800305A6862BBC8F8E4
:1040C00000700FE02268521B20D40B2A17D9611907
:1040D000A342256018BF5960636808BFC8F8001084
:1040E00062514B60304600F02FF804F10B00231DA5
:1040F00020F00700C21A1CBF1B1AA350AFE762686A
:10410000A3420CBFC8F800205A60EBE7234664685E
:10411000AEE73C467F68B6E71A465B68A342FBD130
:1041200000235360DEE70C233360304600F00CF8C8
:1041300094E70560D6E700BF4C0400200148FFF774
:104140000FBF00BF440400200148FFF70ABF00BFB3
:10415000440400202DE9F0478E681F46BE42824687
:104160000C469046334653D8B1F90C0010F4906FCA
:104170002BD065692368096905EB4505A3EB0109A7
:1041800005EBD5757B1C6D104B44AB422A4684BFB2
:104190001D462A46430527D511465046FFF74EFFD8
:1041A000064658B321694A4600F0E8FAA38923F489
:1041B000906343F08003A381266165614E44A5EBC3
:1041C00009052660A5603E463B461F4620683A46E4
:1041D000414600F0A9FAA3689B1BA36023683B44F7
:1041E00023600020BDE8F087504600F0D5FA06466F
:1041F0000028E1D121695046FFF7B4FE0C23CAF82C
:104200000030A38943F04003A3814FF0FF30E9E77A
:104210003E46DBE72DE9F04F98468B891B069DB0A3
:1042200007460D46144610D50B6973B94021FFF7B8
:1042300005FF2860286130B90C233B604FF0FF3048
:104240001DB0BDE8F08F40236B610023099320234C
:104250008DF82930CDF80C803023DFF89C818DF863
:104260002A304FF0010923469A4613F8012B0AB170
:10427000252AF9D1BAEB040B0BD05B46224629461E
:104280003846FFF767FF013000F0A780099A5A44CB
:1042900009929AF80030002B00F09F8000234FF025
:1042A000FF32CDE905230AF1010A049307938DF843
:1042B00053301A935446052214F8011B4E48FBF75D
:1042C00087FF049AD8B9D00644BF20238DF8533015
:1042D000110744BF2B238DF853309AF800302A2B56
:1042E00015D0079A544600204FF00A0C214611F8C9
:1042F000013B303B092B4BD9B0B1079214E0A0EB46
:10430000080309FA03F313430493A246D2E7039B7D
:10431000191D1B680391002BBBBF5B4242F00202D8
:1043200007930793B8BF049223782E2B0AD16378A2
:104330002A2B32D1039B1A1D1B68039243EAE373B5
:1043400002340593DFF8C0A0217803225046FBF722
:104350003FFF38B1049BA0EB0A0040228240134388
:104360000134049314F8011B24488DF82810062208
:10437000FBF72EFF002836D0214B1BBB039B0733D6
:1043800023F0070308330393099B334409936AE737
:104390000CFB02320C460120A8E7002301340593F0
:1043A00019464FF00A0C204610F8012B303A092A22
:1043B00003D9002BC6D00591C4E70CFB01210446AC
:1043C0000123F0E703AB00932A460E4B04A93846BD
:1043D000AFF30080421C0646D6D1AB895B063FF5A1
:1043E0002DAF09982CE703AB00932A46054B04A98F
:1043F000384600F079F8EDE7804800088A48000860
:104400000000000055410008864800082DE9F047EB
:10441000164698468A680B69DDF820909342B8BF2B
:104420001346336091F8432007460C460AB1013326
:1044300033602368990642BF3368023333602568CE
:1044400015F0060506D104F1190AE36832689B1AD3
:10445000AB4226DC94F843302268003B18BF0123AE
:1044600092062BD404F1430241463846C847013036
:104470001ED02368226903F00603042B02BFE568FF
:104480003368ED1AA3680CBF25EAE5750025934251
:10449000C4BF9B1AED1800261A34B5421AD1002069
:1044A00008E00123524641463846C847013003D14F
:1044B0004FF0FF30BDE8F0870135C6E7E1185A1C20
:1044C000302081F84300224494F8451082F84310CC
:1044D0000233C7E70123224641463846C847013028
:1044E000E6D00136D9E700002DE9FF470F7E0C9E8C
:1044F000782F914680460C469A4601F1430207D830
:10450000622F0AD8002F00F0D280582F00F0B78019
:1045100004F1420684F842703AE0A7F16303152BD8
:10452000F6D801A151F823F081450008954500080F
:104530001145000811450008114500081145000803
:10454000954500081145000811450008114500086F
:104550001145000895460008BF4500084B46000875
:104560001145000811450008B7460008114500082C
:10457000BF450008114500081145000853460008D2
:1045800033681A1D1B68326004F1420684F8423019
:1045900001239DE033682068191D3160060601D5AE
:1045A0001D6803E04506FBD5B3F90050002D03DA82
:1045B0002D236D4284F8433059480A2310E02168C6
:1045C0003368080653F8045B02D4490648BFADB20D
:1045D0006F2F5348336059D10823002184F84310CA
:1045E0006668A660002E05DB21682E4321F00401D9
:1045F00021604DD01646B5FBF3F103FB1157C75DA3
:1046000006F8017D2F46BB420D46F4D9082B0BD18D
:104610002368DF0708D5236961689942DEBF30232C
:1046200006F8013C06F1FF36921B2261CDF800A08E
:104630004B4603AA21464046FFF7E8FE01304CD125
:104640004FF0FF3004B0BDE8F087236843F020034B
:1046500023603448782784F84570236831681F0642
:1046600051F8045B02D45F0648BFADB23160D90790
:1046700044BF43F0200323601DB11023ADE7284859
:10468000E9E7236823F020032360F6E70A23A4E781
:104690001646BBE7336825686169181D30602E0631
:1046A0001B6801D5196002E06806FBD5198000235C
:1046B00023611646BAE733681A1D32601E686268C5
:1046C00000213046FBF784FD08B1801B6060636801
:1046D0002361002384F84330A8E723693246494622
:1046E0004046D0470130ABD023689B0713D4E06825
:1046F000039B9842B8BF1846A4E7012332464946B7
:104700004046D04701309BD00135E36803995B1ADE
:10471000AB42F2DCEBE7002504F11906F5E700BF38
:1047200091480008A2480008884210B501EB020435
:1047300002D98442234607D8431EA14207D011F86C
:10474000012B03F8012FF8E70244824200D110BD8B
:1047500013F8011D02F8011DF7E7000038B5064DFA
:104760000023044608462B60FFF776F8431C02D16D
:104770002B6803B1236038BD400400200A449142F5
:1047800000F1FF3300D1704710B511F8014B03F869
:10479000014F9142F9D110BD2DE9F0410746144671
:1047A0000D4621B9BDE8F0411146FFF747BC2AB9D3
:1047B000FFF7D8FB25462846BDE8F08100F01AF83F
:1047C0008442064602D8B4EB500FF4D8214638464E
:1047D000FFF734FC804608B94546ECE7B442224670
:1047E000294628BF3246FFF7C9FF29463846FFF75A
:1047F000B9FBF1E751F8043C181F002BBCBF0B5864
:10480000C0187047F8B500BFF8BC08BC9E4670479A
:0C481000F8B500BFF8BC08BC9E4670471D
:10481C00494D55204641494C0D0A0000494D552043
:10482C004F4B0D0A0000000041583A2536642041D8
:10483C00593A25366420415A3A2536642047583A6D
:10484C002536642047593A25366420475A3A25368E
:10485C006420543A25640D0A00000000000000009A
:10486C000000000001020304060708090000000014
:10487C0001020304232D302B2000686C4C0065666C
:10488C006745464700303132333435363738394195
:10489C0042434445460030313233343536373839AB
:0848AC006162636465660000AF
:0848B4001CB9FF7F01000000A8
:0448BC00D902000815
:0448C000B102000839
:1048C4000024F4001000000001000000100000208B
:1048D400000000000803002070030020D80300201B
:1048E40000000000000000000000000000000000C4
:1048F40000000000000000000000000000000000B4
:1049040000000000000000000000000000000000A3
:0C49140000000000000000000000000097
:04000005080038C5F2
:00000001FF
